{
  "_format": "hh-sol-artifact-1",
  "contractName": "Divisible",
  "sourceName": "contracts/inherited/Divisible.sol",
  "abi": [
    {
      "inputs": [
        {
          "internalType": "uint256",
          "name": "_decimals",
          "type": "uint256"
        }
      ],
      "stateMutability": "nonpayable",
      "type": "constructor"
    },
    {
      "inputs": [],
      "name": "decimals",
      "outputs": [
        {
          "internalType": "uint8",
          "name": "",
          "type": "uint8"
        }
      ],
      "stateMutability": "view",
      "type": "function"
    }
  ],
  "bytecode": "0x608060405234801561001057600080fd5b5060405161019538038061019583398101604081905261002f91610083565b60008060405161003e906100af565b908152604051908190036020018120805492151560ff1990931692909217909155819060029061006d9061009b565b90815260405190819003602001902055506100c6565b600060208284031215610094578081fd5b5051919050565b67646563696d616c7360c01b815260080190565b6a1a5b9a5d1a585b1a5e995960aa1b8152600b0190565b60c1806100d46000396000f3fe6080604052348015600f57600080fd5b506004361060285760003560e01c8063313ce56714602d575b600080fd5b60336047565b604051603e9190607d565b60405180910390f35b600060026040516055906069565b908152602001604051809103902054905090565b67646563696d616c7360c01b815260080190565b60ff9190911681526020019056fea26469706673582212209043108229ace3cbdb826380ef0ab7f5d28695b931fb2830fc8026e57d9536ad64736f6c63430008000033",
  "linkReferences": {},
  "deployedLinkReferences": {}
}