{
  "_format": "hh-sol-artifact-1",
  "contractName": "Pausable",
  "sourceName": "contracts/inherited/Pausable.sol",
  "abi": [
    {
      "inputs": [],
      "stateMutability": "nonpayable",
      "type": "constructor"
    },
    {
      "anonymous": false,
      "inputs": [
        {
          "indexed": false,
          "internalType": "address",
          "name": "newOwner",
          "type": "address"
        }
      ],
      "name": "OwnershipTransferred",
      "type": "event"
    },
    {
      "anonymous": false,
      "inputs": [
        {
          "indexed": false,
          "internalType": "string",
          "name": "msg",
          "type": "string"
        }
      ],
      "name": "PauseEvent",
      "type": "event"
    },
    {
      "inputs": [],
      "name": "Pause",
      "outputs": [],
      "stateMutability": "nonpayable",
      "type": "function"
    },
    {
      "inputs": [],
      "name": "Unpause",
      "outputs": [],
      "stateMutability": "nonpayable",
      "type": "function"
    },
    {
      "inputs": [],
      "name": "_owner",
      "outputs": [
        {
          "internalType": "address",
          "name": "",
          "type": "address"
        }
      ],
      "stateMutability": "view",
      "type": "function"
    },
    {
      "inputs": [],
      "name": "amIOwner",
      "outputs": [
        {
          "internalType": "bool",
          "name": "",
          "type": "bool"
        }
      ],
      "stateMutability": "view",
      "type": "function"
    },
    {
      "inputs": [],
      "name": "isPaused",
      "outputs": [
        {
          "internalType": "bool",
          "name": "",
          "type": "bool"
        }
      ],
      "stateMutability": "view",
      "type": "function"
    },
    {
      "inputs": [
        {
          "internalType": "address payable",
          "name": "newOwner",
          "type": "address"
        }
      ],
      "name": "transferOwnership",
      "outputs": [],
      "stateMutability": "nonpayable",
      "type": "function"
    }
  ],
  "bytecode": "0x608060405234801561001057600080fd5b5060008060405161002090610086565b908152604051908190036020018120805492151560ff1990931692909217909155600880546001600160a01b0319163317905560009081906100619061009d565b908152604051908190036020019020805491151560ff199092169190911790556100af565b6a1a5b9a5d1a585b1a5e995960aa1b8152600b0190565b651c185d5cd95960d21b815260060190565b610581806100be6000396000f3fe608060405234801561001057600080fd5b50600436106100625760003560e01c80634e4ab830146100675780636985a022146100855780637805862f1461008f578063b187bd2614610097578063b2bdfa7b1461009f578063f2fde38b146100b4575b600080fd5b61006f6100c7565b60405161007c91906103d1565b60405180910390f35b61008d6100d8565b005b61008d6101af565b61006f610276565b6100a761029d565b60405161007c91906103bd565b61008d6100c236600461037d565b6102ac565b6008546001600160a01b0316331490565b6008546001600160a01b0316331461010b5760405162461bcd60e51b81526004016101029061042d565b60405180910390fd5b6000604051610119906103ab565b9081526040519081900360200190205460ff16156101495760405162461bcd60e51b8152600401610102906104fb565b60016000604051610159906103ab565b908152604051908190036020018120805492151560ff19909316929092179091557f7d42d1de81835cca5a88bcba7b3bf27125dae84f90e7e9abfa7e694270a59248906101a590610494565b60405180910390a1565b6008546001600160a01b031633146101d95760405162461bcd60e51b81526004016101029061042d565b60006040516101e7906103ab565b9081526040519081900360200190205460ff16151560011461021b5760405162461bcd60e51b8152600401610102906103dc565b60008060405161022a906103ab565b908152604051908190036020018120805492151560ff19909316929092179091557f7d42d1de81835cca5a88bcba7b3bf27125dae84f90e7e9abfa7e694270a59248906101a590610471565b600080604051610285906103ab565b9081526040519081900360200190205460ff16905090565b6008546001600160a01b031681565b6008546001600160a01b031633146102d65760405162461bcd60e51b81526004016101029061042d565b6008546001600160a01b03828116911614156103045760405162461bcd60e51b8152600401610102906104b5565b600880546001600160a01b0319166001600160a01b0383811691821792839055919091161461034357634e487b7160e01b600052600160045260246000fd5b7f04dba622d284ed0014ee4b9a6a68386be1a4c08a4913ae272de89199cc6861638160405161037291906103bd565b60405180910390a150565b60006020828403121561038e578081fd5b81356001600160a01b03811681146103a4578182fd5b9392505050565b651c185d5cd95960d21b815260060190565b6001600160a01b0391909116815260200190565b901515815260200190565b60208082526031908201527f4d6574686f64206973206f6e6c792063616c6c61626c65207768696c6520636f604082015270373a3930b1ba1034b9903830bab9b2b21760791b606082015260800190565b60208082526024908201527f4f6e6c792074686520636f6e7472616374206f776e65722063616e20646f20746040820152633430ba1760e11b606082015260800190565b6020808252600990820152682ab73830bab9b2b21760b91b604082015260600190565b6020808252600790820152662830bab9b2b21760c91b604082015260600190565b60208082526026908201527f43616e6e6f74207472616e73666572206f776e65727368697020746f20796f756040820152653939b2b6331760d11b606082015260800190565b60208082526030908201527f4d6574686f64206973206e6f742063616c6c61626c65207768696c6520636f6e60408201526f3a3930b1ba1034b9903830bab9b2b21760811b60608201526080019056fea26469706673582212206106e7e7eb1a957443df75f630f3c8a599dd7db7d85e5cdeae124742fb84f4c064736f6c63430008000033",
  "linkReferences": {},
  "deployedLinkReferences": {}
}