{
  "_format": "hh-sol-artifact-1",
  "contractName": "Mintable",
  "sourceName": "contracts/inherited/Mintable.sol",
  "abi": [
    {
      "inputs": [
        {
          "internalType": "uint256",
          "name": "price",
          "type": "uint256"
        }
      ],
      "stateMutability": "nonpayable",
      "type": "constructor"
    },
    {
      "anonymous": false,
      "inputs": [
        {
          "indexed": false,
          "internalType": "address",
          "name": "newOwner",
          "type": "address"
        }
      ],
      "name": "OwnershipTransferred",
      "type": "event"
    },
    {
      "anonymous": false,
      "inputs": [
        {
          "indexed": false,
          "internalType": "string",
          "name": "msg",
          "type": "string"
        }
      ],
      "name": "PauseEvent",
      "type": "event"
    },
    {
      "anonymous": false,
      "inputs": [
        {
          "indexed": false,
          "internalType": "address",
          "name": "sender",
          "type": "address"
        },
        {
          "indexed": false,
          "internalType": "address",
          "name": "reciever",
          "type": "address"
        },
        {
          "indexed": false,
          "internalType": "uint256",
          "name": "amount",
          "type": "uint256"
        }
      ],
      "name": "receipt",
      "type": "event"
    },
    {
      "inputs": [],
      "name": "Pause",
      "outputs": [],
      "stateMutability": "nonpayable",
      "type": "function"
    },
    {
      "inputs": [],
      "name": "Unpause",
      "outputs": [],
      "stateMutability": "nonpayable",
      "type": "function"
    },
    {
      "inputs": [],
      "name": "_owner",
      "outputs": [
        {
          "internalType": "address",
          "name": "",
          "type": "address"
        }
      ],
      "stateMutability": "view",
      "type": "function"
    },
    {
      "inputs": [],
      "name": "amIOwner",
      "outputs": [
        {
          "internalType": "bool",
          "name": "",
          "type": "bool"
        }
      ],
      "stateMutability": "view",
      "type": "function"
    },
    {
      "inputs": [
        {
          "internalType": "address",
          "name": "_owner",
          "type": "address"
        }
      ],
      "name": "balanceOf",
      "outputs": [
        {
          "internalType": "uint256",
          "name": "balance",
          "type": "uint256"
        }
      ],
      "stateMutability": "view",
      "type": "function"
    },
    {
      "inputs": [],
      "name": "contractBalance",
      "outputs": [
        {
          "internalType": "uint256",
          "name": "",
          "type": "uint256"
        }
      ],
      "stateMutability": "view",
      "type": "function"
    },
    {
      "inputs": [],
      "name": "isPaused",
      "outputs": [
        {
          "internalType": "bool",
          "name": "",
          "type": "bool"
        }
      ],
      "stateMutability": "view",
      "type": "function"
    },
    {
      "inputs": [],
      "name": "rebalance",
      "outputs": [],
      "stateMutability": "nonpayable",
      "type": "function"
    },
    {
      "inputs": [
        {
          "internalType": "uint256",
          "name": "amount",
          "type": "uint256"
        }
      ],
      "name": "salary",
      "outputs": [],
      "stateMutability": "nonpayable",
      "type": "function"
    },
    {
      "inputs": [],
      "name": "totalSupply",
      "outputs": [
        {
          "internalType": "uint256",
          "name": "",
          "type": "uint256"
        }
      ],
      "stateMutability": "view",
      "type": "function"
    },
    {
      "inputs": [
        {
          "internalType": "address payable",
          "name": "newOwner",
          "type": "address"
        }
      ],
      "name": "transferOwnership",
      "outputs": [],
      "stateMutability": "nonpayable",
      "type": "function"
    },
    {
      "stateMutability": "payable",
      "type": "receive"
    }
  ],
  "bytecode": "0x608060405234801561001057600080fd5b50604051610ced380380610ced83398101604081905261002f916100e6565b60008060405161003e9061010f565b908152604051908190036020018120805492151560ff1990931692909217909155600880546001600160a01b03191633179055600090819061007f90610139565b908152604051908190036020018120805492151560ff19909316929092179091556000906002906100af90610126565b9081526020016040518091039020819055508060026040516100d0906100fe565b908152604051908190036020019020555061014b565b6000602082840312156100f7578081fd5b5051919050565b64707269636560d81b815260050190565b6a1a5b9a5d1a585b1a5e995960aa1b8152600b0190565b6662616c616e636560c81b815260070190565b651c185d5cd95960d21b815260060190565b610b938061015a6000396000f3fe6080604052600436106100a05760003560e01c80637d7c2a1c116100645780637d7c2a1c146101c65780638b7afe2e146101db578063a9b6c435146101f0578063b187bd2614610210578063b2bdfa7b14610225578063f2fde38b1461024757610128565b806318160ddd1461012d5780634e4ab830146101585780636985a0221461017a57806370a08231146101915780637805862f146101b157610128565b36610128576100cb60026040516100b69061087e565b90815260200160405180910390205434610267565b60026040516100d99061087e565b9081526020016040518091039020819055507f8d9acd2e8cb528c1d2827ce578faa546ba2ba1289fd3a8977268cf4f61cb2a4833303460405161011e939291906108b7565b60405180910390a1005b600080fd5b34801561013957600080fd5b506101426102a6565b60405161014f9190610afa565b60405180910390f35b34801561016457600080fd5b5061016d6102ab565b60405161014f91906108db565b34801561018657600080fd5b5061018f6102bc565b005b34801561019d57600080fd5b506101426101ac366004610839565b61038a565b3480156101bd57600080fd5b5061018f610390565b3480156101d257600080fd5b5061018f610457565b3480156101e757600080fd5b506101426104e4565b3480156101fc57600080fd5b5061018f61020b366004610855565b610533565b34801561021c57600080fd5b5061016d6105d2565b34801561023157600080fd5b5061023a6105f9565b60405161014f91906108a3565b34801561025357600080fd5b5061018f610262366004610839565b610608565b6000806102748385610b03565b90508381101561029f5760405162461bcd60e51b8152600401610296906109d5565b60405180910390fd5b9392505050565b600090565b6008546001600160a01b0316331490565b6008546001600160a01b031633146102e65760405162461bcd60e51b815260040161029690610937565b60006040516102f490610891565b9081526040519081900360200190205460ff16156103245760405162461bcd60e51b815260040161029690610aaa565b6001600060405161033490610891565b908152604051908190036020018120805492151560ff19909316929092179091557f7d42d1de81835cca5a88bcba7b3bf27125dae84f90e7e9abfa7e694270a592489061038090610a0c565b60405180910390a1565b50600090565b6008546001600160a01b031633146103ba5760405162461bcd60e51b815260040161029690610937565b60006040516103c890610891565b9081526040519081900360200190205460ff1615156001146103fc5760405162461bcd60e51b8152600401610296906108e6565b60008060405161040b90610891565b908152604051908190036020018120805492151560ff19909316929092179091557f7d42d1de81835cca5a88bcba7b3bf27125dae84f90e7e9abfa7e694270a59248906103809061097b565b6008546001600160a01b031633146104815760405162461bcd60e51b815260040161029690610937565b600060405161048f90610891565b9081526040519081900360200190205460ff1615156001146104c35760405162461bcd60e51b8152600401610296906108e6565b4760026040516104d29061087e565b90815260405190819003602001902055565b6008546000906001600160a01b031633146105115760405162461bcd60e51b815260040161029690610937565b600260405161051f9061087e565b908152602001604051809103902054905090565b6008546001600160a01b0316331461055d5760405162461bcd60e51b815260040161029690610937565b600060405161056b90610891565b9081526040519081900360200190205460ff16151560011461059f5760405162461bcd60e51b8152600401610296906108e6565b6105cf60046040516105b09061086d565b908152604051908190036020019020546001600160a01b0316826106d9565b50565b6000806040516105e190610891565b9081526040519081900360200190205460ff16905090565b6008546001600160a01b031681565b6008546001600160a01b031633146106325760405162461bcd60e51b815260040161029690610937565b6008546001600160a01b03828116911614156106605760405162461bcd60e51b815260040161029690610a64565b600880546001600160a01b0319166001600160a01b0383811691821792839055919091161461069f57634e487b7160e01b600052600160045260246000fd5b7f04dba622d284ed0014ee4b9a6a68386be1a4c08a4913ae272de89199cc686163816040516106ce91906108a3565b60405180910390a150565b60006040516106e790610891565b9081526040519081900360200190205460ff16156107175760405162461bcd60e51b815260040161029690610aaa565b60026040516107259061087e565b9081526020016040518091039020548111156107535760405162461bcd60e51b81526004016102969061099e565b61077960026040516107649061087e565b9081526020016040518091039020548261080d565b60026040516107879061087e565b908152604051908190036020018120919091556001600160a01b0383169082156108fc029083906000818181858888f193505050501580156107cd573d6000803e3d6000fd5b507f8d9acd2e8cb528c1d2827ce578faa546ba2ba1289fd3a8977268cf4f61cb2a48308383604051610801939291906108b7565b60405180910390a15050565b60008282111561082f5760405162461bcd60e51b815260040161029690610a2d565b61029f8284610b1b565b60006020828403121561084a578081fd5b813561029f81610b48565b600060208284031215610866578081fd5b5035919050565b6437bbb732b960d91b815260050190565b6662616c616e636560c81b815260070190565b651c185d5cd95960d21b815260060190565b6001600160a01b0391909116815260200190565b6001600160a01b039384168152919092166020820152604081019190915260600190565b901515815260200190565b60208082526031908201527f4d6574686f64206973206f6e6c792063616c6c61626c65207768696c6520636f604082015270373a3930b1ba1034b9903830bab9b2b21760791b606082015260800190565b60208082526024908201527f4f6e6c792074686520636f6e7472616374206f776e65722063616e20646f20746040820152633430ba1760e11b606082015260800190565b6020808252600990820152682ab73830bab9b2b21760b91b604082015260600190565b6020808252601d908201527f496e73756666696369656e742066756e647320617661696c61626c652e000000604082015260600190565b6020808252601b908201527f536166654d6174683a206164646974696f6e206f766572666c6f770000000000604082015260600190565b6020808252600790820152662830bab9b2b21760c91b604082015260600190565b6020808252601e908201527f536166654d6174683a207375627472616374696f6e206f766572666c6f770000604082015260600190565b60208082526026908201527f43616e6e6f74207472616e73666572206f776e65727368697020746f20796f756040820152653939b2b6331760d11b606082015260800190565b60208082526030908201527f4d6574686f64206973206e6f742063616c6c61626c65207768696c6520636f6e60408201526f3a3930b1ba1034b9903830bab9b2b21760811b606082015260800190565b90815260200190565b60008219821115610b1657610b16610b32565b500190565b600082821015610b2d57610b2d610b32565b500390565b634e487b7160e01b600052601160045260246000fd5b6001600160a01b03811681146105cf57600080fdfea26469706673582212207e43599d4b6f268120a3b34e85b2017d25b1d02ff96a94c292e7678b54469b5264736f6c63430008000033",
  "linkReferences": {},
  "deployedLinkReferences": {}
}