{
  "_format": "hh-sol-artifact-1",
  "contractName": "Ownable",
  "sourceName": "contracts/inherited/Ownable.sol",
  "abi": [
    {
      "inputs": [],
      "stateMutability": "nonpayable",
      "type": "constructor"
    },
    {
      "anonymous": false,
      "inputs": [
        {
          "indexed": false,
          "internalType": "address",
          "name": "newOwner",
          "type": "address"
        }
      ],
      "name": "OwnershipTransferred",
      "type": "event"
    },
    {
      "inputs": [],
      "name": "_owner",
      "outputs": [
        {
          "internalType": "address",
          "name": "",
          "type": "address"
        }
      ],
      "stateMutability": "view",
      "type": "function"
    },
    {
      "inputs": [],
      "name": "amIOwner",
      "outputs": [
        {
          "internalType": "bool",
          "name": "",
          "type": "bool"
        }
      ],
      "stateMutability": "view",
      "type": "function"
    },
    {
      "inputs": [
        {
          "internalType": "address payable",
          "name": "newOwner",
          "type": "address"
        }
      ],
      "name": "transferOwnership",
      "outputs": [],
      "stateMutability": "nonpayable",
      "type": "function"
    }
  ],
  "bytecode": "0x608060405234801561001057600080fd5b5060008060405161002090610057565b908152604051908190036020019020805491151560ff19909216919091179055600880546001600160a01b0319163317905561006e565b6a1a5b9a5d1a585b1a5e995960aa1b8152600b0190565b6102958061007d6000396000f3fe608060405234801561001057600080fd5b50600436106100415760003560e01c80634e4ab83014610046578063b2bdfa7b14610064578063f2fde38b14610079575b600080fd5b61004e61008e565b60405161005b91906101ca565b60405180910390f35b61006c61009f565b60405161005b91906101b6565b61008c610087366004610188565b6100ae565b005b6008546001600160a01b0316331490565b6008546001600160a01b031681565b6008546001600160a01b031633146100e15760405162461bcd60e51b81526004016100d8906101d5565b60405180910390fd5b6008546001600160a01b038281169116141561010f5760405162461bcd60e51b81526004016100d890610219565b600880546001600160a01b0319166001600160a01b0383811691821792839055919091161461014e57634e487b7160e01b600052600160045260246000fd5b7f04dba622d284ed0014ee4b9a6a68386be1a4c08a4913ae272de89199cc6861638160405161017d91906101b6565b60405180910390a150565b600060208284031215610199578081fd5b81356001600160a01b03811681146101af578182fd5b9392505050565b6001600160a01b0391909116815260200190565b901515815260200190565b60208082526024908201527f4f6e6c792074686520636f6e7472616374206f776e65722063616e20646f20746040820152633430ba1760e11b606082015260800190565b60208082526026908201527f43616e6e6f74207472616e73666572206f776e65727368697020746f20796f756040820152653939b2b6331760d11b60608201526080019056fea2646970667358221220e6d4ef44b7447fbb16e8aeb674d2bda087ec8a34bc855843e1d4607d627d6b3764736f6c63430008000033",
  "linkReferences": {},
  "deployedLinkReferences": {}
}