{
  "_format": "hh-sol-artifact-1",
  "contractName": "DethLock",
  "sourceName": "contracts/inherited/DethLock.sol",
  "abi": [
    {
      "anonymous": false,
      "inputs": [
        {
          "indexed": false,
          "internalType": "address",
          "name": "newOwner",
          "type": "address"
        }
      ],
      "name": "OwnershipTransferred",
      "type": "event"
    },
    {
      "anonymous": false,
      "inputs": [
        {
          "indexed": false,
          "internalType": "string",
          "name": "msg",
          "type": "string"
        }
      ],
      "name": "PauseEvent",
      "type": "event"
    },
    {
      "anonymous": false,
      "inputs": [
        {
          "indexed": false,
          "internalType": "address",
          "name": "sender",
          "type": "address"
        },
        {
          "indexed": false,
          "internalType": "address",
          "name": "reciever",
          "type": "address"
        },
        {
          "indexed": false,
          "internalType": "uint256",
          "name": "amount",
          "type": "uint256"
        }
      ],
      "name": "receipt",
      "type": "event"
    },
    {
      "inputs": [],
      "name": "Pause",
      "outputs": [],
      "stateMutability": "nonpayable",
      "type": "function"
    },
    {
      "inputs": [],
      "name": "Unpause",
      "outputs": [],
      "stateMutability": "nonpayable",
      "type": "function"
    },
    {
      "inputs": [],
      "name": "_owner",
      "outputs": [
        {
          "internalType": "address",
          "name": "",
          "type": "address"
        }
      ],
      "stateMutability": "view",
      "type": "function"
    },
    {
      "inputs": [],
      "name": "amIOwner",
      "outputs": [
        {
          "internalType": "bool",
          "name": "",
          "type": "bool"
        }
      ],
      "stateMutability": "view",
      "type": "function"
    },
    {
      "inputs": [],
      "name": "contractBalance",
      "outputs": [
        {
          "internalType": "uint256",
          "name": "",
          "type": "uint256"
        }
      ],
      "stateMutability": "view",
      "type": "function"
    },
    {
      "inputs": [],
      "name": "isPaused",
      "outputs": [
        {
          "internalType": "bool",
          "name": "",
          "type": "bool"
        }
      ],
      "stateMutability": "view",
      "type": "function"
    },
    {
      "inputs": [],
      "name": "rebalance",
      "outputs": [],
      "stateMutability": "nonpayable",
      "type": "function"
    },
    {
      "inputs": [
        {
          "internalType": "uint256",
          "name": "amount",
          "type": "uint256"
        }
      ],
      "name": "salary",
      "outputs": [],
      "stateMutability": "nonpayable",
      "type": "function"
    },
    {
      "inputs": [
        {
          "internalType": "address payable",
          "name": "newOwner",
          "type": "address"
        }
      ],
      "name": "transferOwnership",
      "outputs": [],
      "stateMutability": "nonpayable",
      "type": "function"
    },
    {
      "stateMutability": "payable",
      "type": "receive"
    }
  ],
  "bytecode": "0x608060405234801561001057600080fd5b50600080604051610020906100a6565b908152604051908190036020018120805492151560ff1990931692909217909155600880546001600160a01b031916331790556000908190610061906100d0565b908152604051908190036020018120805492151560ff1990931692909217909155600090600290610091906100bd565b908152604051908190036020019020556100e2565b6a1a5b9a5d1a585b1a5e995960aa1b8152600b0190565b6662616c616e636560c81b815260070190565b651c185d5cd95960d21b815260060190565b610b33806100f16000396000f3fe60806040526004361061008a5760003560e01c80638b7afe2e116100595780638b7afe2e14610183578063a9b6c435146101a5578063b187bd26146101c5578063b2bdfa7b146101da578063f2fde38b146101fc57610112565b80634e4ab830146101175780636985a022146101425780637805862f146101595780637d7c2a1c1461016e57610112565b36610112576100b560026040516100a090610833565b9081526020016040518091039020543461021c565b60026040516100c390610833565b9081526020016040518091039020819055507f8d9acd2e8cb528c1d2827ce578faa546ba2ba1289fd3a8977268cf4f61cb2a483330346040516101089392919061086c565b60405180910390a1005b600080fd5b34801561012357600080fd5b5061012c61025b565b6040516101399190610890565b60405180910390f35b34801561014e57600080fd5b5061015761026c565b005b34801561016557600080fd5b5061015761033a565b34801561017a57600080fd5b50610157610401565b34801561018f57600080fd5b5061019861048e565b6040516101399190610aaf565b3480156101b157600080fd5b506101576101c036600461080a565b6104dd565b3480156101d157600080fd5b5061012c61057c565b3480156101e657600080fd5b506101ef6105a3565b6040516101399190610858565b34801561020857600080fd5b506101576102173660046107e3565b6105b2565b6000806102298385610ab8565b9050838110156102545760405162461bcd60e51b815260040161024b9061098a565b60405180910390fd5b9392505050565b6008546001600160a01b0316331490565b6008546001600160a01b031633146102965760405162461bcd60e51b815260040161024b906108ec565b60006040516102a490610846565b9081526040519081900360200190205460ff16156102d45760405162461bcd60e51b815260040161024b90610a5f565b600160006040516102e490610846565b908152604051908190036020018120805492151560ff19909316929092179091557f7d42d1de81835cca5a88bcba7b3bf27125dae84f90e7e9abfa7e694270a5924890610330906109c1565b60405180910390a1565b6008546001600160a01b031633146103645760405162461bcd60e51b815260040161024b906108ec565b600060405161037290610846565b9081526040519081900360200190205460ff1615156001146103a65760405162461bcd60e51b815260040161024b9061089b565b6000806040516103b590610846565b908152604051908190036020018120805492151560ff19909316929092179091557f7d42d1de81835cca5a88bcba7b3bf27125dae84f90e7e9abfa7e694270a592489061033090610930565b6008546001600160a01b0316331461042b5760405162461bcd60e51b815260040161024b906108ec565b600060405161043990610846565b9081526040519081900360200190205460ff16151560011461046d5760405162461bcd60e51b815260040161024b9061089b565b47600260405161047c90610833565b90815260405190819003602001902055565b6008546000906001600160a01b031633146104bb5760405162461bcd60e51b815260040161024b906108ec565b60026040516104c990610833565b908152602001604051809103902054905090565b6008546001600160a01b031633146105075760405162461bcd60e51b815260040161024b906108ec565b600060405161051590610846565b9081526040519081900360200190205460ff1615156001146105495760405162461bcd60e51b815260040161024b9061089b565b610579600460405161055a90610822565b908152604051908190036020019020546001600160a01b031682610683565b50565b60008060405161058b90610846565b9081526040519081900360200190205460ff16905090565b6008546001600160a01b031681565b6008546001600160a01b031633146105dc5760405162461bcd60e51b815260040161024b906108ec565b6008546001600160a01b038281169116141561060a5760405162461bcd60e51b815260040161024b90610a19565b600880546001600160a01b0319166001600160a01b0383811691821792839055919091161461064957634e487b7160e01b600052600160045260246000fd5b7f04dba622d284ed0014ee4b9a6a68386be1a4c08a4913ae272de89199cc686163816040516106789190610858565b60405180910390a150565b600060405161069190610846565b9081526040519081900360200190205460ff16156106c15760405162461bcd60e51b815260040161024b90610a5f565b60026040516106cf90610833565b9081526020016040518091039020548111156106fd5760405162461bcd60e51b815260040161024b90610953565b610723600260405161070e90610833565b908152602001604051809103902054826107b7565b600260405161073190610833565b908152604051908190036020018120919091556001600160a01b0383169082156108fc029083906000818181858888f19350505050158015610777573d6000803e3d6000fd5b507f8d9acd2e8cb528c1d2827ce578faa546ba2ba1289fd3a8977268cf4f61cb2a483083836040516107ab9392919061086c565b60405180910390a15050565b6000828211156107d95760405162461bcd60e51b815260040161024b906109e2565b6102548284610ad0565b6000602082840312156107f4578081fd5b81356001600160a01b0381168114610254578182fd5b60006020828403121561081b578081fd5b5035919050565b6437bbb732b960d91b815260050190565b6662616c616e636560c81b815260070190565b651c185d5cd95960d21b815260060190565b6001600160a01b0391909116815260200190565b6001600160a01b039384168152919092166020820152604081019190915260600190565b901515815260200190565b60208082526031908201527f4d6574686f64206973206f6e6c792063616c6c61626c65207768696c6520636f604082015270373a3930b1ba1034b9903830bab9b2b21760791b606082015260800190565b60208082526024908201527f4f6e6c792074686520636f6e7472616374206f776e65722063616e20646f20746040820152633430ba1760e11b606082015260800190565b6020808252600990820152682ab73830bab9b2b21760b91b604082015260600190565b6020808252601d908201527f496e73756666696369656e742066756e647320617661696c61626c652e000000604082015260600190565b6020808252601b908201527f536166654d6174683a206164646974696f6e206f766572666c6f770000000000604082015260600190565b6020808252600790820152662830bab9b2b21760c91b604082015260600190565b6020808252601e908201527f536166654d6174683a207375627472616374696f6e206f766572666c6f770000604082015260600190565b60208082526026908201527f43616e6e6f74207472616e73666572206f776e65727368697020746f20796f756040820152653939b2b6331760d11b606082015260800190565b60208082526030908201527f4d6574686f64206973206e6f742063616c6c61626c65207768696c6520636f6e60408201526f3a3930b1ba1034b9903830bab9b2b21760811b606082015260800190565b90815260200190565b60008219821115610acb57610acb610ae7565b500190565b600082821015610ae257610ae2610ae7565b500390565b634e487b7160e01b600052601160045260246000fdfea2646970667358221220acde591dc9917dea6122d297a6a1a43553ee52bfdbaf2d401b777d0ed3e77db164736f6c63430008000033",
  "linkReferences": {},
  "deployedLinkReferences": {}
}