{
  "_format": "hh-sol-artifact-1",
  "contractName": "Nameable",
  "sourceName": "contracts/inherited/Nameable.sol",
  "abi": [
    {
      "inputs": [
        {
          "internalType": "string",
          "name": "_name",
          "type": "string"
        },
        {
          "internalType": "string",
          "name": "_symbol",
          "type": "string"
        }
      ],
      "stateMutability": "nonpayable",
      "type": "constructor"
    },
    {
      "anonymous": false,
      "inputs": [
        {
          "indexed": false,
          "internalType": "address",
          "name": "newOwner",
          "type": "address"
        }
      ],
      "name": "OwnershipTransferred",
      "type": "event"
    },
    {
      "anonymous": false,
      "inputs": [
        {
          "indexed": false,
          "internalType": "string",
          "name": "newName",
          "type": "string"
        }
      ],
      "name": "Renamed",
      "type": "event"
    },
    {
      "anonymous": false,
      "inputs": [
        {
          "indexed": false,
          "internalType": "string",
          "name": "newSymbol",
          "type": "string"
        }
      ],
      "name": "Resymboled",
      "type": "event"
    },
    {
      "inputs": [],
      "name": "_owner",
      "outputs": [
        {
          "internalType": "address",
          "name": "",
          "type": "address"
        }
      ],
      "stateMutability": "view",
      "type": "function"
    },
    {
      "inputs": [],
      "name": "amIOwner",
      "outputs": [
        {
          "internalType": "bool",
          "name": "",
          "type": "bool"
        }
      ],
      "stateMutability": "view",
      "type": "function"
    },
    {
      "inputs": [],
      "name": "name",
      "outputs": [
        {
          "internalType": "string",
          "name": "",
          "type": "string"
        }
      ],
      "stateMutability": "view",
      "type": "function"
    },
    {
      "inputs": [
        {
          "internalType": "string",
          "name": "newName",
          "type": "string"
        }
      ],
      "name": "reName",
      "outputs": [],
      "stateMutability": "nonpayable",
      "type": "function"
    },
    {
      "inputs": [
        {
          "internalType": "string",
          "name": "newSymbol",
          "type": "string"
        }
      ],
      "name": "reSymbol",
      "outputs": [],
      "stateMutability": "nonpayable",
      "type": "function"
    },
    {
      "inputs": [],
      "name": "symbol",
      "outputs": [
        {
          "internalType": "string",
          "name": "",
          "type": "string"
        }
      ],
      "stateMutability": "view",
      "type": "function"
    },
    {
      "inputs": [
        {
          "internalType": "address payable",
          "name": "newOwner",
          "type": "address"
        }
      ],
      "name": "transferOwnership",
      "outputs": [],
      "stateMutability": "nonpayable",
      "type": "function"
    }
  ],
  "bytecode": "0x60806040523480156200001157600080fd5b5060405162000a0a38038062000a0a83398101604081905262000034916200023a565b6000806040516200004590620002b1565b908152604051908190036020018120805492151560ff1990931692909217909155600880546001600160a01b0319163317905582906005906200008890620002a1565b90815260200160405180910390209080519060200190620000ab929190620000e9565b50806005604051620000bd90620002c8565b90815260200160405180910390209080519060200190620000e0929190620000e9565b5050506200032d565b828054620000f790620002da565b90600052602060002090601f0160209004810192826200011b576000855562000166565b82601f106200013657805160ff191683800117855562000166565b8280016001018555821562000166579182015b828111156200016657825182559160200191906001019062000149565b506200017492915062000178565b5090565b5b8082111562000174576000815560010162000179565b600082601f830112620001a0578081fd5b81516001600160401b0380821115620001bd57620001bd62000317565b6040516020601f8401601f1916820181018381118382101715620001e557620001e562000317565b6040528382528584018101871015620001fc578485fd5b8492505b838310156200021f578583018101518284018201529182019162000200565b838311156200023057848185840101525b5095945050505050565b600080604083850312156200024d578182fd5b82516001600160401b038082111562000264578384fd5b62000272868387016200018f565b9350602085015191508082111562000288578283fd5b5062000297858286016200018f565b9150509250929050565b636e616d6560e01b815260040190565b6a1a5b9a5d1a585b1a5e995960aa1b8152600b0190565b651cde5b589bdb60d21b815260060190565b600281046001821680620002ef57607f821691505b602082108114156200031157634e487b7160e01b600052602260045260246000fd5b50919050565b634e487b7160e01b600052604160045260246000fd5b6106cd806200033d6000396000f3fe608060405234801561001057600080fd5b506004361061007d5760003560e01c806395d89b411161005b57806395d89b41146100ca578063b2bdfa7b146100d2578063cc168b8a146100e7578063f2fde38b146100fa5761007d565b806306fdde0314610082578063449bb622146100a05780634e4ab830146100b5575b600080fd5b61008a61010d565b604051610097919061057f565b60405180910390f35b6100b36100ae3660046104a2565b6101b9565b005b6100bd610254565b6040516100979190610545565b61008a610265565b6100da610275565b6040516100979190610531565b6100b36100f53660046104a2565b610284565b6100b3610108366004610474565b61030a565b6060600560405161011d9061050f565b908152602001604051809103902080546101369061065c565b80601f01602080910402602001604051908101604052809291908181526020018280546101629061065c565b80156101af5780601f10610184576101008083540402835291602001916101af565b820191906000526020600020905b81548152906001019060200180831161019257829003601f168201915b5050505050905090565b6008546001600160a01b031633146101ec5760405162461bcd60e51b81526004016101e3906105d2565b60405180910390fd5b818160056040516101fc9061051f565b9081526040519081900360200190206102169290916103db565b507fea3ec50373d0b5c0b8c659a066856c1520352bb60a318e816420d830dc4b6d458282604051610248929190610550565b60405180910390a15050565b6008546001600160a01b0316331490565b6060600560405161011d9061051f565b6008546001600160a01b031681565b6008546001600160a01b031633146102ae5760405162461bcd60e51b81526004016101e3906105d2565b818160056040516102be9061050f565b9081526040519081900360200190206102d89290916103db565b507f72e439a2d2348e4711ee609edf6fcfd2a4ff52ad22d5fc9d05ec02b57e4162558282604051610248929190610550565b6008546001600160a01b031633146103345760405162461bcd60e51b81526004016101e3906105d2565b6008546001600160a01b03828116911614156103625760405162461bcd60e51b81526004016101e390610616565b600880546001600160a01b0319166001600160a01b038381169182179283905591909116146103a157634e487b7160e01b600052600160045260246000fd5b7f04dba622d284ed0014ee4b9a6a68386be1a4c08a4913ae272de89199cc686163816040516103d09190610531565b60405180910390a150565b8280546103e79061065c565b90600052602060002090601f016020900481019282610409576000855561044f565b82601f106104225782800160ff1982351617855561044f565b8280016001018555821561044f579182015b8281111561044f578235825591602001919060010190610434565b5061045b92915061045f565b5090565b5b8082111561045b5760008155600101610460565b600060208284031215610485578081fd5b81356001600160a01b038116811461049b578182fd5b9392505050565b600080602083850312156104b4578081fd5b823567ffffffffffffffff808211156104cb578283fd5b818501915085601f8301126104de578283fd5b8135818111156104ec578384fd5b8660208285010111156104fd578384fd5b60209290920196919550909350505050565b636e616d6560e01b815260040190565b651cde5b589bdb60d21b815260060190565b6001600160a01b0391909116815260200190565b901515815260200190565b60006020825282602083015282846040840137818301604090810191909152601f909201601f19160101919050565b6000602080835283518082850152825b818110156105ab5785810183015185820160400152820161058f565b818111156105bc5783604083870101525b50601f01601f1916929092016040019392505050565b60208082526024908201527f4f6e6c792074686520636f6e7472616374206f776e65722063616e20646f20746040820152633430ba1760e11b606082015260800190565b60208082526026908201527f43616e6e6f74207472616e73666572206f776e65727368697020746f20796f756040820152653939b2b6331760d11b606082015260800190565b60028104600182168061067057607f821691505b6020821081141561069157634e487b7160e01b600052602260045260246000fd5b5091905056fea2646970667358221220ea340c6250d77bf1614ebb7a5812b08a44261f2c4c2f4265fc66c9c8ce13eb5264736f6c63430008000033",
  "linkReferences": {},
  "deployedLinkReferences": {}
}