{
  "_format": "hh-sol-artifact-1",
  "contractName": "Mortal",
  "sourceName": "contracts/inherited/Mortal.sol",
  "abi": [
    {
      "anonymous": false,
      "inputs": [
        {
          "indexed": false,
          "internalType": "address",
          "name": "newOwner",
          "type": "address"
        }
      ],
      "name": "OwnershipTransferred",
      "type": "event"
    },
    {
      "anonymous": false,
      "inputs": [
        {
          "indexed": false,
          "internalType": "string",
          "name": "msg",
          "type": "string"
        }
      ],
      "name": "PauseEvent",
      "type": "event"
    },
    {
      "anonymous": false,
      "inputs": [
        {
          "indexed": false,
          "internalType": "string",
          "name": "msg",
          "type": "string"
        }
      ],
      "name": "imploding",
      "type": "event"
    },
    {
      "inputs": [],
      "name": "Pause",
      "outputs": [],
      "stateMutability": "nonpayable",
      "type": "function"
    },
    {
      "inputs": [],
      "name": "Unpause",
      "outputs": [],
      "stateMutability": "nonpayable",
      "type": "function"
    },
    {
      "inputs": [],
      "name": "_owner",
      "outputs": [
        {
          "internalType": "address",
          "name": "",
          "type": "address"
        }
      ],
      "stateMutability": "view",
      "type": "function"
    },
    {
      "inputs": [],
      "name": "amIOwner",
      "outputs": [
        {
          "internalType": "bool",
          "name": "",
          "type": "bool"
        }
      ],
      "stateMutability": "view",
      "type": "function"
    },
    {
      "inputs": [],
      "name": "implode",
      "outputs": [],
      "stateMutability": "nonpayable",
      "type": "function"
    },
    {
      "inputs": [],
      "name": "isPaused",
      "outputs": [
        {
          "internalType": "bool",
          "name": "",
          "type": "bool"
        }
      ],
      "stateMutability": "view",
      "type": "function"
    },
    {
      "inputs": [
        {
          "internalType": "address payable",
          "name": "newOwner",
          "type": "address"
        }
      ],
      "name": "transferOwnership",
      "outputs": [],
      "stateMutability": "nonpayable",
      "type": "function"
    }
  ],
  "bytecode": "0x608060405234801561001057600080fd5b5060008060405161002090610086565b908152604051908190036020018120805492151560ff1990931692909217909155600880546001600160a01b0319163317905560009081906100619061009d565b908152604051908190036020019020805491151560ff199092169190911790556100af565b6a1a5b9a5d1a585b1a5e995960aa1b8152600b0190565b651c185d5cd95960d21b815260060190565b61069e806100be6000396000f3fe608060405234801561001057600080fd5b506004361061007d5760003560e01c80637805862f1161005b5780637805862f146100b2578063b187bd26146100ba578063b2bdfa7b146100c2578063f2fde38b146100d75761007d565b80633d8aa9b8146100825780634e4ab8301461008c5780636985a022146100aa575b600080fd5b61008a6100ea565b005b6100946101bd565b6040516100a191906104cf565b60405180910390f35b61008a6101ce565b61008a61029c565b610094610363565b6100ca61038a565b6040516100a191906104bb565b61008a6100e536600461046a565b610399565b6008546001600160a01b0316331461011d5760405162461bcd60e51b81526004016101149061052b565b60405180910390fd5b600060405161012b906104a9565b9081526040519081900360200190205460ff16151560011461015f5760405162461bcd60e51b8152600401610114906104da565b7f59856d07e781c7d783b2740fdea65325a51339ea46afc8d69ddc427701b0215060405161018c906105b3565b60405180910390a160046040516101a290610498565b908152604051908190036020019020546001600160a01b0316ff5b6008546001600160a01b0316331490565b6008546001600160a01b031633146101f85760405162461bcd60e51b81526004016101149061052b565b6000604051610206906104a9565b9081526040519081900360200190205460ff16156102365760405162461bcd60e51b815260040161011490610618565b60016000604051610246906104a9565b908152604051908190036020018120805492151560ff19909316929092179091557f7d42d1de81835cca5a88bcba7b3bf27125dae84f90e7e9abfa7e694270a592489061029290610592565b60405180910390a1565b6008546001600160a01b031633146102c65760405162461bcd60e51b81526004016101149061052b565b60006040516102d4906104a9565b9081526040519081900360200190205460ff1615156001146103085760405162461bcd60e51b8152600401610114906104da565b600080604051610317906104a9565b908152604051908190036020018120805492151560ff19909316929092179091557f7d42d1de81835cca5a88bcba7b3bf27125dae84f90e7e9abfa7e694270a59248906102929061056f565b600080604051610372906104a9565b9081526040519081900360200190205460ff16905090565b6008546001600160a01b031681565b6008546001600160a01b031633146103c35760405162461bcd60e51b81526004016101149061052b565b6008546001600160a01b03828116911614156103f15760405162461bcd60e51b8152600401610114906105d2565b600880546001600160a01b0319166001600160a01b0383811691821792839055919091161461043057634e487b7160e01b600052600160045260246000fd5b7f04dba622d284ed0014ee4b9a6a68386be1a4c08a4913ae272de89199cc6861638160405161045f91906104bb565b60405180910390a150565b60006020828403121561047b578081fd5b81356001600160a01b0381168114610491578182fd5b9392505050565b6437bbb732b960d91b815260050190565b651c185d5cd95960d21b815260060190565b6001600160a01b0391909116815260200190565b901515815260200190565b60208082526031908201527f4d6574686f64206973206f6e6c792063616c6c61626c65207768696c6520636f604082015270373a3930b1ba1034b9903830bab9b2b21760791b606082015260800190565b60208082526024908201527f4f6e6c792074686520636f6e7472616374206f776e65722063616e20646f20746040820152633430ba1760e11b606082015260800190565b6020808252600990820152682ab73830bab9b2b21760b91b604082015260600190565b6020808252600790820152662830bab9b2b21760c91b604082015260600190565b60208082526005908201526410a6a7a7a160d91b604082015260600190565b60208082526026908201527f43616e6e6f74207472616e73666572206f776e65727368697020746f20796f756040820152653939b2b6331760d11b606082015260800190565b60208082526030908201527f4d6574686f64206973206e6f742063616c6c61626c65207768696c6520636f6e60408201526f3a3930b1ba1034b9903830bab9b2b21760811b60608201526080019056fea26469706673582212207ee235b60c4215f70ef5b7b378d2aa0503062b59719f2fb5d9d8fa0d8728c2d864736f6c63430008000033",
  "linkReferences": {},
  "deployedLinkReferences": {}
}